{
  "contractName": "GovernorBravoDelegate",
  "abi": [
    {
      "anonymous": false,
      "inputs": [
        {
          "indexed": false,
          "internalType": "address",
          "name": "oldAdmin",
          "type": "address"
        },
        {
          "indexed": false,
          "internalType": "address",
          "name": "newAdmin",
          "type": "address"
        }
      ],
      "name": "NewAdmin",
      "type": "event"
    },
    {
      "anonymous": false,
      "inputs": [
        {
          "indexed": false,
          "internalType": "address",
          "name": "oldImplementation",
          "type": "address"
        },
        {
          "indexed": false,
          "internalType": "address",
          "name": "newImplementation",
          "type": "address"
        }
      ],
      "name": "NewImplementation",
      "type": "event"
    },
    {
      "anonymous": false,
      "inputs": [
        {
          "indexed": false,
          "internalType": "address",
          "name": "oldPendingAdmin",
          "type": "address"
        },
        {
          "indexed": false,
          "internalType": "address",
          "name": "newPendingAdmin",
          "type": "address"
        }
      ],
      "name": "NewPendingAdmin",
      "type": "event"
    },
    {
      "anonymous": false,
      "inputs": [
        {
          "indexed": false,
          "internalType": "uint256",
          "name": "id",
          "type": "uint256"
        }
      ],
      "name": "ProposalCanceled",
      "type": "event"
    },
    {
      "anonymous": false,
      "inputs": [
        {
          "indexed": false,
          "internalType": "uint256",
          "name": "id",
          "type": "uint256"
        },
        {
          "indexed": false,
          "internalType": "address",
          "name": "proposer",
          "type": "address"
        },
        {
          "indexed": false,
          "internalType": "address[]",
          "name": "targets",
          "type": "address[]"
        },
        {
          "indexed": false,
          "internalType": "uint256[]",
          "name": "values",
          "type": "uint256[]"
        },
        {
          "indexed": false,
          "internalType": "string[]",
          "name": "signatures",
          "type": "string[]"
        },
        {
          "indexed": false,
          "internalType": "bytes[]",
          "name": "calldatas",
          "type": "bytes[]"
        },
        {
          "indexed": false,
          "internalType": "uint256",
          "name": "startBlock",
          "type": "uint256"
        },
        {
          "indexed": false,
          "internalType": "uint256",
          "name": "endBlock",
          "type": "uint256"
        },
        {
          "indexed": false,
          "internalType": "string",
          "name": "description",
          "type": "string"
        }
      ],
      "name": "ProposalCreated",
      "type": "event"
    },
    {
      "anonymous": false,
      "inputs": [
        {
          "indexed": false,
          "internalType": "uint256",
          "name": "id",
          "type": "uint256"
        }
      ],
      "name": "ProposalExecuted",
      "type": "event"
    },
    {
      "anonymous": false,
      "inputs": [
        {
          "indexed": false,
          "internalType": "uint256",
          "name": "id",
          "type": "uint256"
        },
        {
          "indexed": false,
          "internalType": "uint256",
          "name": "eta",
          "type": "uint256"
        }
      ],
      "name": "ProposalQueued",
      "type": "event"
    },
    {
      "anonymous": false,
      "inputs": [
        {
          "indexed": false,
          "internalType": "uint256",
          "name": "oldProposalThreshold",
          "type": "uint256"
        },
        {
          "indexed": false,
          "internalType": "uint256",
          "name": "newProposalThreshold",
          "type": "uint256"
        }
      ],
      "name": "ProposalThresholdSet",
      "type": "event"
    },
    {
      "anonymous": false,
      "inputs": [
        {
          "indexed": true,
          "internalType": "address",
          "name": "voter",
          "type": "address"
        },
        {
          "indexed": false,
          "internalType": "uint256",
          "name": "proposalId",
          "type": "uint256"
        },
        {
          "indexed": false,
          "internalType": "uint8",
          "name": "support",
          "type": "uint8"
        },
        {
          "indexed": false,
          "internalType": "uint256",
          "name": "votes",
          "type": "uint256"
        },
        {
          "indexed": false,
          "internalType": "string",
          "name": "reason",
          "type": "string"
        }
      ],
      "name": "VoteCast",
      "type": "event"
    },
    {
      "anonymous": false,
      "inputs": [
        {
          "indexed": false,
          "internalType": "uint256",
          "name": "oldVotingDelay",
          "type": "uint256"
        },
        {
          "indexed": false,
          "internalType": "uint256",
          "name": "newVotingDelay",
          "type": "uint256"
        }
      ],
      "name": "VotingDelaySet",
      "type": "event"
    },
    {
      "anonymous": false,
      "inputs": [
        {
          "indexed": false,
          "internalType": "uint256",
          "name": "oldVotingPeriod",
          "type": "uint256"
        },
        {
          "indexed": false,
          "internalType": "uint256",
          "name": "newVotingPeriod",
          "type": "uint256"
        }
      ],
      "name": "VotingPeriodSet",
      "type": "event"
    },
    {
      "constant": true,
      "inputs": [],
      "name": "BALLOT_TYPEHASH",
      "outputs": [
        {
          "internalType": "bytes32",
          "name": "",
          "type": "bytes32"
        }
      ],
      "payable": false,
      "stateMutability": "view",
      "type": "function"
    },
    {
      "constant": true,
      "inputs": [],
      "name": "DOMAIN_TYPEHASH",
      "outputs": [
        {
          "internalType": "bytes32",
          "name": "",
          "type": "bytes32"
        }
      ],
      "payable": false,
      "stateMutability": "view",
      "type": "function"
    },
    {
      "constant": true,
      "inputs": [],
      "name": "MAX_PROPOSAL_THRESHOLD",
      "outputs": [
        {
          "internalType": "uint256",
          "name": "",
          "type": "uint256"
        }
      ],
      "payable": false,
      "stateMutability": "view",
      "type": "function"
    },
    {
      "constant": true,
      "inputs": [],
      "name": "MAX_VOTING_DELAY",
      "outputs": [
        {
          "internalType": "uint256",
          "name": "",
          "type": "uint256"
        }
      ],
      "payable": false,
      "stateMutability": "view",
      "type": "function"
    },
    {
      "constant": true,
      "inputs": [],
      "name": "MAX_VOTING_PERIOD",
      "outputs": [
        {
          "internalType": "uint256",
          "name": "",
          "type": "uint256"
        }
      ],
      "payable": false,
      "stateMutability": "view",
      "type": "function"
    },
    {
      "constant": true,
      "inputs": [],
      "name": "MIN_PROPOSAL_THRESHOLD",
      "outputs": [
        {
          "internalType": "uint256",
          "name": "",
          "type": "uint256"
        }
      ],
      "payable": false,
      "stateMutability": "view",
      "type": "function"
    },
    {
      "constant": true,
      "inputs": [],
      "name": "MIN_VOTING_DELAY",
      "outputs": [
        {
          "internalType": "uint256",
          "name": "",
          "type": "uint256"
        }
      ],
      "payable": false,
      "stateMutability": "view",
      "type": "function"
    },
    {
      "constant": true,
      "inputs": [],
      "name": "MIN_VOTING_PERIOD",
      "outputs": [
        {
          "internalType": "uint256",
          "name": "",
          "type": "uint256"
        }
      ],
      "payable": false,
      "stateMutability": "view",
      "type": "function"
    },
    {
      "constant": true,
      "inputs": [],
      "name": "admin",
      "outputs": [
        {
          "internalType": "address",
          "name": "",
          "type": "address"
        }
      ],
      "payable": false,
      "stateMutability": "view",
      "type": "function"
    },
    {
      "constant": true,
      "inputs": [],
      "name": "boba",
      "outputs": [
        {
          "internalType": "contract BobaInterface",
          "name": "",
          "type": "address"
        }
      ],
      "payable": false,
      "stateMutability": "view",
      "type": "function"
    },
    {
      "constant": true,
      "inputs": [],
      "name": "implementation",
      "outputs": [
        {
          "internalType": "address",
          "name": "",
          "type": "address"
        }
      ],
      "payable": false,
      "stateMutability": "view",
      "type": "function"
    },
    {
      "constant": true,
      "inputs": [],
      "name": "initialProposalId",
      "outputs": [
        {
          "internalType": "uint256",
          "name": "",
          "type": "uint256"
        }
      ],
      "payable": false,
      "stateMutability": "view",
      "type": "function"
    },
    {
      "constant": true,
      "inputs": [
        {
          "internalType": "address",
          "name": "",
          "type": "address"
        }
      ],
      "name": "latestProposalIds",
      "outputs": [
        {
          "internalType": "uint256",
          "name": "",
          "type": "uint256"
        }
      ],
      "payable": false,
      "stateMutability": "view",
      "type": "function"
    },
    {
      "constant": true,
      "inputs": [],
      "name": "name",
      "outputs": [
        {
          "internalType": "string",
          "name": "",
          "type": "string"
        }
      ],
      "payable": false,
      "stateMutability": "view",
      "type": "function"
    },
    {
      "constant": true,
      "inputs": [],
      "name": "pendingAdmin",
      "outputs": [
        {
          "internalType": "address",
          "name": "",
          "type": "address"
        }
      ],
      "payable": false,
      "stateMutability": "view",
      "type": "function"
    },
    {
      "constant": true,
      "inputs": [],
      "name": "proposalCount",
      "outputs": [
        {
          "internalType": "uint256",
          "name": "",
          "type": "uint256"
        }
      ],
      "payable": false,
      "stateMutability": "view",
      "type": "function"
    },
    {
      "constant": true,
      "inputs": [],
      "name": "proposalMaxOperations",
      "outputs": [
        {
          "internalType": "uint256",
          "name": "",
          "type": "uint256"
        }
      ],
      "payable": false,
      "stateMutability": "view",
      "type": "function"
    },
    {
      "constant": true,
      "inputs": [],
      "name": "proposalThreshold",
      "outputs": [
        {
          "internalType": "uint256",
          "name": "",
          "type": "uint256"
        }
      ],
      "payable": false,
      "stateMutability": "view",
      "type": "function"
    },
    {
      "constant": true,
      "inputs": [
        {
          "internalType": "uint256",
          "name": "",
          "type": "uint256"
        }
      ],
      "name": "proposals",
      "outputs": [
        {
          "internalType": "uint256",
          "name": "id",
          "type": "uint256"
        },
        {
          "internalType": "address",
          "name": "proposer",
          "type": "address"
        },
        {
          "internalType": "uint256",
          "name": "eta",
          "type": "uint256"
        },
        {
          "internalType": "uint256",
          "name": "startBlock",
          "type": "uint256"
        },
        {
          "internalType": "uint256",
          "name": "endBlock",
          "type": "uint256"
        },
        {
          "internalType": "uint256",
          "name": "forVotes",
          "type": "uint256"
        },
        {
          "internalType": "uint256",
          "name": "againstVotes",
          "type": "uint256"
        },
        {
          "internalType": "uint256",
          "name": "abstainVotes",
          "type": "uint256"
        },
        {
          "internalType": "bool",
          "name": "canceled",
          "type": "bool"
        },
        {
          "internalType": "bool",
          "name": "executed",
          "type": "bool"
        }
      ],
      "payable": false,
      "stateMutability": "view",
      "type": "function"
    },
    {
      "constant": true,
      "inputs": [],
      "name": "quorumVotes",
      "outputs": [
        {
          "internalType": "uint256",
          "name": "",
          "type": "uint256"
        }
      ],
      "payable": false,
      "stateMutability": "view",
      "type": "function"
    },
    {
      "constant": true,
      "inputs": [],
      "name": "timelock",
      "outputs": [
        {
          "internalType": "contract TimelockInterface",
          "name": "",
          "type": "address"
        }
      ],
      "payable": false,
      "stateMutability": "view",
      "type": "function"
    },
    {
      "constant": true,
      "inputs": [],
      "name": "votingDelay",
      "outputs": [
        {
          "internalType": "uint256",
          "name": "",
          "type": "uint256"
        }
      ],
      "payable": false,
      "stateMutability": "view",
      "type": "function"
    },
    {
      "constant": true,
      "inputs": [],
      "name": "votingPeriod",
      "outputs": [
        {
          "internalType": "uint256",
          "name": "",
          "type": "uint256"
        }
      ],
      "payable": false,
      "stateMutability": "view",
      "type": "function"
    },
    {
      "constant": false,
      "inputs": [
        {
          "internalType": "address",
          "name": "timelock_",
          "type": "address"
        },
        {
          "internalType": "address",
          "name": "boba_",
          "type": "address"
        },
        {
          "internalType": "uint256",
          "name": "votingPeriod_",
          "type": "uint256"
        },
        {
          "internalType": "uint256",
          "name": "votingDelay_",
          "type": "uint256"
        },
        {
          "internalType": "uint256",
          "name": "proposalThreshold_",
          "type": "uint256"
        }
      ],
      "name": "initialize",
      "outputs": [],
      "payable": false,
      "stateMutability": "nonpayable",
      "type": "function"
    },
    {
      "constant": false,
      "inputs": [
        {
          "internalType": "address[]",
          "name": "targets",
          "type": "address[]"
        },
        {
          "internalType": "uint256[]",
          "name": "values",
          "type": "uint256[]"
        },
        {
          "internalType": "string[]",
          "name": "signatures",
          "type": "string[]"
        },
        {
          "internalType": "bytes[]",
          "name": "calldatas",
          "type": "bytes[]"
        },
        {
          "internalType": "string",
          "name": "description",
          "type": "string"
        }
      ],
      "name": "propose",
      "outputs": [
        {
          "internalType": "uint256",
          "name": "",
          "type": "uint256"
        }
      ],
      "payable": false,
      "stateMutability": "nonpayable",
      "type": "function"
    },
    {
      "constant": false,
      "inputs": [
        {
          "internalType": "uint256",
          "name": "proposalId",
          "type": "uint256"
        }
      ],
      "name": "queue",
      "outputs": [],
      "payable": false,
      "stateMutability": "nonpayable",
      "type": "function"
    },
    {
      "constant": false,
      "inputs": [
        {
          "internalType": "uint256",
          "name": "proposalId",
          "type": "uint256"
        }
      ],
      "name": "execute",
      "outputs": [],
      "payable": true,
      "stateMutability": "payable",
      "type": "function"
    },
    {
      "constant": false,
      "inputs": [
        {
          "internalType": "uint256",
          "name": "proposalId",
          "type": "uint256"
        }
      ],
      "name": "cancel",
      "outputs": [],
      "payable": false,
      "stateMutability": "nonpayable",
      "type": "function"
    },
    {
      "constant": true,
      "inputs": [
        {
          "internalType": "uint256",
          "name": "proposalId",
          "type": "uint256"
        }
      ],
      "name": "getActions",
      "outputs": [
        {
          "internalType": "address[]",
          "name": "targets",
          "type": "address[]"
        },
        {
          "internalType": "uint256[]",
          "name": "values",
          "type": "uint256[]"
        },
        {
          "internalType": "string[]",
          "name": "signatures",
          "type": "string[]"
        },
        {
          "internalType": "bytes[]",
          "name": "calldatas",
          "type": "bytes[]"
        }
      ],
      "payable": false,
      "stateMutability": "view",
      "type": "function"
    },
    {
      "constant": true,
      "inputs": [
        {
          "internalType": "uint256",
          "name": "proposalId",
          "type": "uint256"
        },
        {
          "internalType": "address",
          "name": "voter",
          "type": "address"
        }
      ],
      "name": "getReceipt",
      "outputs": [
        {
          "components": [
            {
              "internalType": "bool",
              "name": "hasVoted",
              "type": "bool"
            },
            {
              "internalType": "uint8",
              "name": "support",
              "type": "uint8"
            },
            {
              "internalType": "uint96",
              "name": "votes",
              "type": "uint96"
            }
          ],
          "internalType": "struct GovernorBravoDelegateStorageV1.Receipt",
          "name": "",
          "type": "tuple"
        }
      ],
      "payable": false,
      "stateMutability": "view",
      "type": "function"
    },
    {
      "constant": true,
      "inputs": [
        {
          "internalType": "uint256",
          "name": "proposalId",
          "type": "uint256"
        }
      ],
      "name": "state",
      "outputs": [
        {
          "internalType": "enum GovernorBravoDelegateStorageV1.ProposalState",
          "name": "",
          "type": "uint8"
        }
      ],
      "payable": false,
      "stateMutability": "view",
      "type": "function"
    },
    {
      "constant": false,
      "inputs": [
        {
          "internalType": "uint256",
          "name": "proposalId",
          "type": "uint256"
        },
        {
          "internalType": "uint8",
          "name": "support",
          "type": "uint8"
        }
      ],
      "name": "castVote",
      "outputs": [],
      "payable": false,
      "stateMutability": "nonpayable",
      "type": "function"
    },
    {
      "constant": false,
      "inputs": [
        {
          "internalType": "uint256",
          "name": "proposalId",
          "type": "uint256"
        },
        {
          "internalType": "uint8",
          "name": "support",
          "type": "uint8"
        },
        {
          "internalType": "string",
          "name": "reason",
          "type": "string"
        }
      ],
      "name": "castVoteWithReason",
      "outputs": [],
      "payable": false,
      "stateMutability": "nonpayable",
      "type": "function"
    },
    {
      "constant": false,
      "inputs": [
        {
          "internalType": "uint256",
          "name": "proposalId",
          "type": "uint256"
        },
        {
          "internalType": "uint8",
          "name": "support",
          "type": "uint8"
        },
        {
          "internalType": "uint8",
          "name": "v",
          "type": "uint8"
        },
        {
          "internalType": "bytes32",
          "name": "r",
          "type": "bytes32"
        },
        {
          "internalType": "bytes32",
          "name": "s",
          "type": "bytes32"
        }
      ],
      "name": "castVoteBySig",
      "outputs": [],
      "payable": false,
      "stateMutability": "nonpayable",
      "type": "function"
    },
    {
      "constant": false,
      "inputs": [
        {
          "internalType": "uint256",
          "name": "newVotingDelay",
          "type": "uint256"
        }
      ],
      "name": "_setVotingDelay",
      "outputs": [],
      "payable": false,
      "stateMutability": "nonpayable",
      "type": "function"
    },
    {
      "constant": false,
      "inputs": [
        {
          "internalType": "uint256",
          "name": "newVotingPeriod",
          "type": "uint256"
        }
      ],
      "name": "_setVotingPeriod",
      "outputs": [],
      "payable": false,
      "stateMutability": "nonpayable",
      "type": "function"
    },
    {
      "constant": false,
      "inputs": [
        {
          "internalType": "uint256",
          "name": "newProposalThreshold",
          "type": "uint256"
        }
      ],
      "name": "_setProposalThreshold",
      "outputs": [],
      "payable": false,
      "stateMutability": "nonpayable",
      "type": "function"
    },
    {
      "constant": false,
      "inputs": [],
      "name": "_initiate",
      "outputs": [],
      "payable": false,
      "stateMutability": "nonpayable",
      "type": "function"
    },
    {
      "constant": false,
      "inputs": [
        {
          "internalType": "address",
          "name": "newPendingAdmin",
          "type": "address"
        }
      ],
      "name": "_setPendingAdmin",
      "outputs": [],
      "payable": false,
      "stateMutability": "nonpayable",
      "type": "function"
    },
    {
      "constant": false,
      "inputs": [],
      "name": "_acceptAdmin",
      "outputs": [],
      "payable": false,
      "stateMutability": "nonpayable",
      "type": "function"
    }
  ],
  "bytecode": "0x608060405234801561001057600080fd5b5061676880620000216000396000f3fe60806040526004361061023b5760003560e01c80637b3c71d31161012e578063da35c664116100ab578063e48083fe1161006f578063e48083fe14610871578063e9c714f21461089c578063f851a440146108b3578063fc4eee42146108de578063fe0d94c1146109095761023b565b8063da35c66414610778578063da95691a146107a3578063ddf0b009146107e0578063deaaa7cc14610809578063e23a9a52146108345761023b565b8063b58131b0116100f2578063b58131b0146106a5578063b71d1a0c146106d0578063c501f816146106f9578063d13f90b414610724578063d33219b41461074d5761023b565b80637b3c71d3146105e45780637bdbe4d01461060d578063878f148214610638578063a64e024a1461064f578063b11262631461067a5761023b565b806325fd935a116101bc5780633e4f49e6116101805780633e4f49e6146104ff57806340e58ee51461053c57806356781388146105655780635c60da1b1461058e578063791f5d23146105b95761023b565b806325fd935a146104155780632678224714610440578063328dd9821461046b5780633932abb1146104ab5780633bccf4fd146104d65761023b565b806317ba1b8b1161020357806317ba1b8b146103425780631dfb1b5a1461036b57806320606b7014610394578063215809ca146103bf57806324bc1a64146103ea5761023b565b8063013cf08b1461024057806302a251a31461028657806306fdde03146102b15780630ea2d98c146102dc57806317977c6114610305575b600080fd5b34801561024c57600080fd5b5061026760048036036102629190810190614021565b610925565b60405161027d9a999897969594939291906160a2565b60405180910390f35b34801561029257600080fd5b5061029b6109b3565b6040516102a89190615fd7565b60405180910390f35b3480156102bd57600080fd5b506102c66109b9565b6040516102d39190615b1a565b60405180910390f35b3480156102e857600080fd5b5061030360048036036102fe9190810190614021565b6109f2565b005b34801561031157600080fd5b5061032c60048036036103279190810190613dff565b610b22565b6040516103399190615fd7565b60405180910390f35b34801561034e57600080fd5b5061036960048036036103649190810190614021565b610b3a565b005b34801561037757600080fd5b50610392600480360361038d9190810190614021565b610c79565b005b3480156103a057600080fd5b506103a9610da7565b6040516103b691906159ed565b60405180910390f35b3480156103cb57600080fd5b506103d4610dbe565b6040516103e19190615fd7565b60405180910390f35b3480156103f657600080fd5b506103ff610dc4565b60405161040c9190615fd7565b60405180910390f35b34801561042157600080fd5b5061042a610dd2565b6040516104379190615fd7565b60405180910390f35b34801561044c57600080fd5b50610455610de0565b6040516104629190615834565b60405180910390f35b34801561047757600080fd5b50610492600480360361048d9190810190614021565b610e06565b6040516104a2949392919061598c565b60405180910390f35b3480156104b757600080fd5b506104c06110e3565b6040516104cd9190615fd7565b60405180910390f35b3480156104e257600080fd5b506104fd60048036036104f89190810190614157565b6110e9565b005b34801561050b57600080fd5b5061052660048036036105219190810190614021565b611309565b6040516105339190615aff565b60405180910390f35b34801561054857600080fd5b50610563600480360361055e9190810190614021565b6114f2565b005b34801561057157600080fd5b5061058c600480360361058791908101906140af565b611886565b005b34801561059a57600080fd5b506105a36118e6565b6040516105b09190615834565b60405180910390f35b3480156105c557600080fd5b506105ce61190c565b6040516105db9190615fd7565b60405180910390f35b3480156105f057600080fd5b5061060b600480360361060691908101906140eb565b61191a565b005b34801561061957600080fd5b50610622611980565b60405161062f9190615fd7565b60405180910390f35b34801561064457600080fd5b5061064d611985565b005b34801561065b57600080fd5b50610664611aee565b6040516106719190615fd7565b60405180910390f35b34801561068657600080fd5b5061068f611af5565b60405161069c9190615fd7565b60405180910390f35b3480156106b157600080fd5b506106ba611afb565b6040516106c79190615fd7565b60405180910390f35b3480156106dc57600080fd5b506106f760048036036106f29190810190613dff565b611b01565b005b34801561070557600080fd5b5061070e611c35565b60405161071b9190615ac9565b60405180910390f35b34801561073057600080fd5b5061074b60048036036107469190810190613e28565b611c5b565b005b34801561075957600080fd5b50610762612002565b60405161076f9190615ae4565b60405180910390f35b34801561078457600080fd5b5061078d612028565b60405161079a9190615fd7565b60405180910390f35b3480156107af57600080fd5b506107ca60048036036107c59190810190613e9f565b61202e565b6040516107d79190615fd7565b60405180910390f35b3480156107ec57600080fd5b5061080760048036036108029190810190614021565b61263d565b005b34801561081557600080fd5b5061081e61298d565b60405161082b91906159ed565b60405180910390f35b34801561084057600080fd5b5061085b60048036036108569190810190614073565b6129a4565b6040516108689190615fbc565b60405180910390f35b34801561087d57600080fd5b50610886612a88565b6040516108939190615fd7565b60405180910390f35b3480156108a857600080fd5b506108b1612a8d565b005b3480156108bf57600080fd5b506108c8612d00565b6040516108d59190615834565b60405180910390f35b3480156108ea57600080fd5b506108f3612d25565b6040516109009190615fd7565b60405180910390f35b610923600480360361091e9190810190614021565b612d2b565b005b600a6020528060005260406000206000915090508060000154908060010160009054906101000a900473ffffffffffffffffffffffffffffffffffffffff169080600201549080600701549080600801549080600901549080600a01549080600b01549080600c0160009054906101000a900460ff169080600c0160019054906101000a900460ff1690508a565b60045481565b6040518060400160405280601381526020017f426f626120476f7665726e6f7220427261766f0000000000000000000000000081525081565b6000809054906101000a900473ffffffffffffffffffffffffffffffffffffffff1673ffffffffffffffffffffffffffffffffffffffff163373ffffffffffffffffffffffffffffffffffffffff1614610a81576040517f08c379a0000000000000000000000000000000000000000000000000000000008152600401610a7890615bbc565b60405180910390fd5b6116808110158015610a96575062013b008111155b610ad5576040517f08c379a0000000000000000000000000000000000000000000000000000000008152600401610acc90615c3c565b60405180910390fd5b60006004549050816004819055507f7e3f7f0708a84de9203036abaa450dccc85ad5ff52f78c170f3edb55cf5e882881600454604051610b1692919061613e565b60405180910390a15050565b600b6020528060005260406000206000915090505481565b6000809054906101000a900473ffffffffffffffffffffffffffffffffffffffff1673ffffffffffffffffffffffffffffffffffffffff163373ffffffffffffffffffffffffffffffffffffffff1614610bc9576040517f08c379a0000000000000000000000000000000000000000000000000000000008152600401610bc090615f3c565b60405180910390fd5b690a968163f0a57b4000008110158015610bed575069152d02c7e14af68000008111155b610c2c576040517f08c379a0000000000000000000000000000000000000000000000000000000008152600401610c2390615d7c565b60405180910390fd5b60006005549050816005819055507fccb45da8d5717e6c4544694297c4ba5cf151d455c9bb0ed4fc7a38411bc0546181600554604051610c6d92919061613e565b60405180910390a15050565b6000809054906101000a900473ffffffffffffffffffffffffffffffffffffffff1673ffffffffffffffffffffffffffffffffffffffff163373ffffffffffffffffffffffffffffffffffffffff1614610d08576040517f08c379a0000000000000000000000000000000000000000000000000000000008152600401610cff90615bfc565b60405180910390fd5b60018110158015610d1b5750619d808111155b610d5a576040517f08c379a0000000000000000000000000000000000000000000000000000000008152600401610d5190615c9c565b60405180910390fd5b60006003549050816003819055507fc565b045403dc03c2eea82b81a0465edad9e2e7fc4d97e11421c209da93d7a9381600354604051610d9b92919061613e565b60405180910390a15050565b604051610db39061581f565b604051809103902081565b61168081565b6954b40b1f852bda00000081565b69152d02c7e14af680000081565b600160009054906101000a900473ffffffffffffffffffffffffffffffffffffffff1681565b6060806060806000600a600087815260200190815260200160002090508060030181600401826005018360060183805480602002602001604051908101604052809291908181526020018280548015610eb457602002820191906000526020600020905b8160009054906101000a900473ffffffffffffffffffffffffffffffffffffffff1673ffffffffffffffffffffffffffffffffffffffff1681526020019060010190808311610e6a575b5050505050935082805480602002602001604051908101604052809291908181526020018280548015610f0657602002820191906000526020600020905b815481526020019060010190808311610ef2575b5050505050925081805480602002602001604051908101604052809291908181526020016000905b82821015610fea578382906000526020600020018054600181600116156101000203166002900480601f016020809104026020016040519081016040528092919081815260200182805460018160011615610100020316600290048015610fd65780601f10610fab57610100808354040283529160200191610fd6565b820191906000526020600020905b815481529060010190602001808311610fb957829003601f168201915b505050505081526020019060010190610f2e565b50505050915080805480602002602001604051908101604052809291908181526020016000905b828210156110cd578382906000526020600020018054600181600116156101000203166002900480601f0160208091040260200160405190810160405280929190818152602001828054600181600116156101000203166002900480156110b95780601f1061108e576101008083540402835291602001916110b9565b820191906000526020600020905b81548152906001019060200180831161109c57829003601f168201915b505050505081526020019060010190611011565b5050505090509450945094509450509193509193565b60035481565b60006040516110f79061581f565b60405180910390206040518060400160405280601381526020017f426f626120476f7665726e6f7220427261766f0000000000000000000000000081525080519060200120611144612f79565b306040516020016111589493929190615a08565b604051602081830303815290604052805190602001209050600060405161117e906157d3565b6040518091039020878760405160200161119a93929190615a4d565b604051602081830303815290604052805190602001209050600082826040516020016111c79291906157e8565b6040516020818303038152906040528051906020012090506000600182888888604051600081526020016040526040516112049493929190615a84565b6020604051602081039080840390855afa158015611226573d6000803e3d6000fd5b505050602060405103519050600073ffffffffffffffffffffffffffffffffffffffff168173ffffffffffffffffffffffffffffffffffffffff1614156112a2576040517f08c379a000000000000000000000000000000000000000000000000000000000815260040161129990615cfc565b60405180910390fd5b8073ffffffffffffffffffffffffffffffffffffffff167fb8e138887d0aa13bab447e82de9d5c1777041ecd21ca36ba824ff1e6c07ddda48a8a6112e7858e8e612f86565b6040516112f6939291906161b5565b60405180910390a2505050505050505050565b6000816007541015801561131e575060065482115b61135d576040517f08c379a000000000000000000000000000000000000000000000000000000000815260040161135490615f5c565b60405180910390fd5b6000600a6000848152602001908152602001600020905080600c0160009054906101000a900460ff16156113955760029150506114ed565b806007015443116113aa5760009150506114ed565b806008015443116113bf5760019150506114ed565b80600a015481600901541115806113e357506954b40b1f852bda0000008160090154105b156113f25760039150506114ed565b6000816002015414156114095760049150506114ed565b80600c0160019054906101000a900460ff161561142a5760079150506114ed565b6114d78160020154600860009054906101000a900473ffffffffffffffffffffffffffffffffffffffff1673ffffffffffffffffffffffffffffffffffffffff1663c1a287e26040518163ffffffff1660e01b815260040160206040518083038186803b15801561149a57600080fd5b505afa1580156114ae573d6000803e3d6000fd5b505050506040513d601f19601f820116820180604052506114d2919081019061404a565b6132b0565b42106114e75760069150506114ed565b60059150505b919050565b6007808111156114fe57fe5b61150782611309565b600781111561151257fe5b1415611553576040517f08c379a000000000000000000000000000000000000000000000000000000000815260040161154a90615f1c565b60405180910390fd5b6000600a600083815260200190815260200160002090508060010160009054906101000a900473ffffffffffffffffffffffffffffffffffffffff1673ffffffffffffffffffffffffffffffffffffffff163373ffffffffffffffffffffffffffffffffffffffff1614806116b15750600554600960009054906101000a900473ffffffffffffffffffffffffffffffffffffffff1673ffffffffffffffffffffffffffffffffffffffff1663782d6fe18360010160009054906101000a900473ffffffffffffffffffffffffffffffffffffffff16611634436001613305565b6040518363ffffffff1660e01b81526004016116519291906158a1565b60206040518083038186803b15801561166957600080fd5b505afa15801561167d573d6000803e3d6000fd5b505050506040513d601f19601f820116820180604052506116a191908101906141ce565b6bffffffffffffffffffffffff16105b6116f0576040517f08c379a00000000000000000000000000000000000000000000000000000000081526004016116e790615e5c565b60405180910390fd5b600181600c0160006101000a81548160ff02191690831515021790555060008090505b816003018054905081101561184a57600860009054906101000a900473ffffffffffffffffffffffffffffffffffffffff1673ffffffffffffffffffffffffffffffffffffffff1663591fcdfe83600301838154811061176f57fe5b9060005260206000200160009054906101000a900473ffffffffffffffffffffffffffffffffffffffff168460040184815481106117a957fe5b90600052602060002001548560050185815481106117c357fe5b906000526020600020018660060186815481106117dc57fe5b9060005260206000200187600201546040518663ffffffff1660e01b815260040161180b95949392919061592b565b600060405180830381600087803b15801561182557600080fd5b505af1158015611839573d6000803e3d6000fd5b505050508080600101915050611713565b507f789cf55be980739dad1d0699b93b58e806b51c9d96619bfa8fe0a28abaa7b30c8260405161187a9190615fd7565b60405180910390a15050565b3373ffffffffffffffffffffffffffffffffffffffff167fb8e138887d0aa13bab447e82de9d5c1777041ecd21ca36ba824ff1e6c07ddda483836118cb338787612f86565b6040516118da939291906161b5565b60405180910390a25050565b600260009054906101000a900473ffffffffffffffffffffffffffffffffffffffff1681565b690a968163f0a57b40000081565b3373ffffffffffffffffffffffffffffffffffffffff167fb8e138887d0aa13bab447e82de9d5c1777041ecd21ca36ba824ff1e6c07ddda4858561195f338989612f86565b8686604051611972959493929190616167565b60405180910390a250505050565b600a81565b6000809054906101000a900473ffffffffffffffffffffffffffffffffffffffff1673ffffffffffffffffffffffffffffffffffffffff163373ffffffffffffffffffffffffffffffffffffffff1614611a14576040517f08c379a0000000000000000000000000000000000000000000000000000000008152600401611a0b90615edc565b60405180910390fd5b600060065414611a59576040517f08c379a0000000000000000000000000000000000000000000000000000000008152600401611a5090615dfc565b60405180910390fd5b6001600781905550600754600681905550600860009054906101000a900473ffffffffffffffffffffffffffffffffffffffff1673ffffffffffffffffffffffffffffffffffffffff16630e18b6816040518163ffffffff1660e01b8152600401600060405180830381600087803b158015611ad457600080fd5b505af1158015611ae8573d6000803e3d6000fd5b50505050565b62013b0081565b619d8081565b60055481565b6000809054906101000a900473ffffffffffffffffffffffffffffffffffffffff1673ffffffffffffffffffffffffffffffffffffffff163373ffffffffffffffffffffffffffffffffffffffff1614611b90576040517f08c379a0000000000000000000000000000000000000000000000000000000008152600401611b8790615b7c565b60405180910390fd5b6000600160009054906101000a900473ffffffffffffffffffffffffffffffffffffffff16905081600160006101000a81548173ffffffffffffffffffffffffffffffffffffffff021916908373ffffffffffffffffffffffffffffffffffffffff1602179055507fca4f2f25d0898edd99413412fb94012f9e54ec8142f9b093e7720646a95b16a98183604051611c29929190615878565b60405180910390a15050565b600960009054906101000a900473ffffffffffffffffffffffffffffffffffffffff1681565b600073ffffffffffffffffffffffffffffffffffffffff16600860009054906101000a900473ffffffffffffffffffffffffffffffffffffffff1673ffffffffffffffffffffffffffffffffffffffff1614611cec576040517f08c379a0000000000000000000000000000000000000000000000000000000008152600401611ce390615b5c565b60405180910390fd5b6000809054906101000a900473ffffffffffffffffffffffffffffffffffffffff1673ffffffffffffffffffffffffffffffffffffffff163373ffffffffffffffffffffffffffffffffffffffff1614611d7b576040517f08c379a0000000000000000000000000000000000000000000000000000000008152600401611d7290615d5c565b60405180910390fd5b600073ffffffffffffffffffffffffffffffffffffffff168573ffffffffffffffffffffffffffffffffffffffff161415611deb576040517f08c379a0000000000000000000000000000000000000000000000000000000008152600401611de290615bdc565b60405180910390fd5b600073ffffffffffffffffffffffffffffffffffffffff168473ffffffffffffffffffffffffffffffffffffffff161415611e5b576040517f08c379a0000000000000000000000000000000000000000000000000000000008152600401611e5290615d9c565b60405180910390fd5b6116808310158015611e70575062013b008311155b611eaf576040517f08c379a0000000000000000000000000000000000000000000000000000000008152600401611ea690615f7c565b60405180910390fd5b60018210158015611ec25750619d808211155b611f01576040517f08c379a0000000000000000000000000000000000000000000000000000000008152600401611ef890615d1c565b60405180910390fd5b690a968163f0a57b4000008110158015611f25575069152d02c7e14af68000008111155b611f64576040517f08c379a0000000000000000000000000000000000000000000000000000000008152600401611f5b90615cbc565b60405180910390fd5b84600860006101000a81548173ffffffffffffffffffffffffffffffffffffffff021916908373ffffffffffffffffffffffffffffffffffffffff16021790555083600960006101000a81548173ffffffffffffffffffffffffffffffffffffffff021916908373ffffffffffffffffffffffffffffffffffffffff1602179055508260048190555081600381905550806005819055505050505050565b600860009054906101000a900473ffffffffffffffffffffffffffffffffffffffff1681565b60075481565b6000806006541415612075576040517f08c379a000000000000000000000000000000000000000000000000000000000815260040161206c90615c1c565b60405180910390fd5b600554600960009054906101000a900473ffffffffffffffffffffffffffffffffffffffff1673ffffffffffffffffffffffffffffffffffffffff1663782d6fe1336120c2436001613305565b6040518363ffffffff1660e01b81526004016120df92919061584f565b60206040518083038186803b1580156120f757600080fd5b505afa15801561210b573d6000803e3d6000fd5b505050506040513d601f19601f8201168201806040525061212f91908101906141ce565b6bffffffffffffffffffffffff161161217d576040517f08c379a000000000000000000000000000000000000000000000000000000000815260040161217490615efc565b60405180910390fd5b8451865114801561218f575083518651145b801561219c575082518651145b6121db576040517f08c379a00000000000000000000000000000000000000000000000000000000081526004016121d290615d3c565b60405180910390fd5b600086511415612220576040517f08c379a000000000000000000000000000000000000000000000000000000000815260040161221790615e1c565b60405180910390fd5b600a86511115612265576040517f08c379a000000000000000000000000000000000000000000000000000000000815260040161225c90615e7c565b60405180910390fd5b6000600b60003373ffffffffffffffffffffffffffffffffffffffff1673ffffffffffffffffffffffffffffffffffffffff168152602001908152602001600020549050600081146123745760006122bc82611309565b9050600160078111156122cb57fe5b8160078111156122d757fe5b1415612318576040517f08c379a000000000000000000000000000000000000000000000000000000000815260040161230f90615ebc565b60405180910390fd5b6000600781111561232557fe5b81600781111561233157fe5b1415612372576040517f08c379a000000000000000000000000000000000000000000000000000000000815260040161236990615e9c565b60405180910390fd5b505b6000612382436003546132b0565b90506000612392826004546132b0565b90506007600081548092919060010191905055506123ae61352b565b604051806101c0016040528060075481526020013373ffffffffffffffffffffffffffffffffffffffff168152602001600081526020018b81526020018a815260200189815260200188815260200184815260200183815260200160008152602001600081526020016000815260200160001515815260200160001515815250905080600a6000836000015181526020019081526020016000206000820151816000015560208201518160010160006101000a81548173ffffffffffffffffffffffffffffffffffffffff021916908373ffffffffffffffffffffffffffffffffffffffff1602179055506040820151816002015560608201518160030190805190602001906124bf9291906135b4565b5060808201518160040190805190602001906124dc92919061363e565b5060a08201518160050190805190602001906124f992919061368b565b5060c08201518160060190805190602001906125169291906136eb565b5060e082015181600701556101008201518160080155610120820151816009015561014082015181600a015561016082015181600b015561018082015181600c0160006101000a81548160ff0219169083151502179055506101a082015181600c0160016101000a81548160ff0219169083151502179055509050508060000151600b6000836020015173ffffffffffffffffffffffffffffffffffffffff1673ffffffffffffffffffffffffffffffffffffffff168152602001908152602001600020819055507f7d84a6263ae0d98d3329bd7b46bb4e8d6f98cd35a7adb45c274c8b7fd5ebd5e08160000151338c8c8c8c89898e60405161262199989796959493929190615ff2565b60405180910390a1806000015194505050505095945050505050565b6004600781111561264a57fe5b61265382611309565b600781111561265e57fe5b1461269e576040517f08c379a000000000000000000000000000000000000000000000000000000000815260040161269590615dbc565b60405180910390fd5b6000600a60008381526020019081526020016000209050600061276042600860009054906101000a900473ffffffffffffffffffffffffffffffffffffffff1673ffffffffffffffffffffffffffffffffffffffff16636a42b8f86040518163ffffffff1660e01b815260040160206040518083038186803b15801561272357600080fd5b505afa158015612737573d6000803e3d6000fd5b505050506040513d601f19601f8201168201806040525061275b919081019061404a565b6132b0565b905060008090505b82600301805490508110156129455761293883600301828154811061278957fe5b9060005260206000200160009054906101000a900473ffffffffffffffffffffffffffffffffffffffff168460040183815481106127c357fe5b90600052602060002001548560050184815481106127dd57fe5b906000526020600020018054600181600116156101000203166002900480601f01602080910402602001604051908101604052809291908181526020018280546001816001161561010002031660029004801561287b5780601f106128505761010080835404028352916020019161287b565b820191906000526020600020905b81548152906001019060200180831161285e57829003601f168201915b505050505086600601858154811061288f57fe5b906000526020600020018054600181600116156101000203166002900480601f01602080910402602001604051908101604052809291908181526020018280546001816001161561010002031660029004801561292d5780601f106129025761010080835404028352916020019161292d565b820191906000526020600020905b81548152906001019060200180831161291057829003601f168201915b505050505086613355565b8080600101915050612768565b508082600201819055507f9a2e42fd6722813d69113e7d0079d3d940171428df7373df9c7f7617cfda2892838260405161298092919061613e565b60405180910390a1505050565b604051612999906157d3565b604051809103902081565b6129ac61374b565b600a6000848152602001908152602001600020600d0160008373ffffffffffffffffffffffffffffffffffffffff1673ffffffffffffffffffffffffffffffffffffffff1681526020019081526020016000206040518060600160405290816000820160009054906101000a900460ff161515151581526020016000820160019054906101000a900460ff1660ff1660ff1681526020016000820160029054906101000a90046bffffffffffffffffffffffff166bffffffffffffffffffffffff166bffffffffffffffffffffffff1681525050905092915050565b600181565b600160009054906101000a900473ffffffffffffffffffffffffffffffffffffffff1673ffffffffffffffffffffffffffffffffffffffff163373ffffffffffffffffffffffffffffffffffffffff16148015612b175750600073ffffffffffffffffffffffffffffffffffffffff163373ffffffffffffffffffffffffffffffffffffffff1614155b612b56576040517f08c379a0000000000000000000000000000000000000000000000000000000008152600401612b4d90615e3c565b60405180910390fd5b60008060009054906101000a900473ffffffffffffffffffffffffffffffffffffffff1690506000600160009054906101000a900473ffffffffffffffffffffffffffffffffffffffff169050600160009054906101000a900473ffffffffffffffffffffffffffffffffffffffff166000806101000a81548173ffffffffffffffffffffffffffffffffffffffff021916908373ffffffffffffffffffffffffffffffffffffffff1602179055506000600160006101000a81548173ffffffffffffffffffffffffffffffffffffffff021916908373ffffffffffffffffffffffffffffffffffffffff1602179055507ff9ffabca9c8276e99321725bcb43fb076a6c66a54b7f21c4e8146d8519b417dc826000809054906101000a900473ffffffffffffffffffffffffffffffffffffffff16604051612c99929190615878565b60405180910390a17fca4f2f25d0898edd99413412fb94012f9e54ec8142f9b093e7720646a95b16a981600160009054906101000a900473ffffffffffffffffffffffffffffffffffffffff16604051612cf4929190615878565b60405180910390a15050565b6000809054906101000a900473ffffffffffffffffffffffffffffffffffffffff1681565b60065481565b60056007811115612d3857fe5b612d4182611309565b6007811115612d4c57fe5b14612d8c576040517f08c379a0000000000000000000000000000000000000000000000000000000008152600401612d8390615cdc565b60405180910390fd5b6000600a60008381526020019081526020016000209050600181600c0160016101000a81548160ff02191690831515021790555060008090505b8160030180549050811015612f3d57600860009054906101000a900473ffffffffffffffffffffffffffffffffffffffff1673ffffffffffffffffffffffffffffffffffffffff16630825f38f836004018381548110612e2257fe5b9060005260206000200154846003018481548110612e3c57fe5b9060005260206000200160009054906101000a900473ffffffffffffffffffffffffffffffffffffffff16856004018581548110612e7657fe5b9060005260206000200154866005018681548110612e9057fe5b90600052602060002001876006018781548110612ea957fe5b9060005260206000200188600201546040518763ffffffff1660e01b8152600401612ed895949392919061592b565b6000604051808303818588803b158015612ef157600080fd5b505af1158015612f05573d6000803e3d6000fd5b50505050506040513d6000823e3d601f19601f82011682018060405250612f2f9190810190613fe0565b508080600101915050612dc6565b507f712ae1383f79ac853f8d882153778e0260ef8f03b504e2866e0593e04d2b291f82604051612f6d9190615fd7565b60405180910390a15050565b6000804690508091505090565b600060016007811115612f9557fe5b612f9e84611309565b6007811115612fa957fe5b14612fe9576040517f08c379a0000000000000000000000000000000000000000000000000000000008152600401612fe090615c5c565b60405180910390fd5b60028260ff161115613030576040517f08c379a000000000000000000000000000000000000000000000000000000000815260040161302790615b3c565b60405180910390fd5b6000600a60008581526020019081526020016000209050600081600d0160008773ffffffffffffffffffffffffffffffffffffffff1673ffffffffffffffffffffffffffffffffffffffff1681526020019081526020016000209050600015158160000160009054906101000a900460ff161515146130e4576040517f08c379a00000000000000000000000000000000000000000000000000000000081526004016130db90615c7c565b60405180910390fd5b6000600960009054906101000a900473ffffffffffffffffffffffffffffffffffffffff1673ffffffffffffffffffffffffffffffffffffffff1663782d6fe18885600701546040518363ffffffff1660e01b81526004016131479291906158a1565b60206040518083038186803b15801561315f57600080fd5b505afa158015613173573d6000803e3d6000fd5b505050506040513d601f19601f8201168201806040525061319791908101906141ce565b905060008560ff1614156131ce576131c183600a0154826bffffffffffffffffffffffff166132b0565b83600a0181905550613236565b60018560ff161415613203576131f68360090154826bffffffffffffffffffffffff166132b0565b8360090181905550613235565b60028560ff1614156132345761322b83600b0154826bffffffffffffffffffffffff166132b0565b83600b01819055505b5b5b60018260000160006101000a81548160ff021916908315150217905550848260000160016101000a81548160ff021916908360ff160217905550808260000160026101000a8154816bffffffffffffffffffffffff02191690836bffffffffffffffffffffffff1602179055508093505050509392505050565b6000808284019050838110156132fb576040517f08c379a00000000000000000000000000000000000000000000000000000000081526004016132f290615ddc565b60405180910390fd5b8091505092915050565b60008282111561334a576040517f08c379a000000000000000000000000000000000000000000000000000000000815260040161334190615f9c565b60405180910390fd5b818303905092915050565b600860009054906101000a900473ffffffffffffffffffffffffffffffffffffffff1673ffffffffffffffffffffffffffffffffffffffff1663f2b0653786868686866040516020016133ac9594939291906158ca565b604051602081830303815290604052805190602001206040518263ffffffff1660e01b81526004016133de91906159ed565b60206040518083038186803b1580156133f657600080fd5b505afa15801561340a573d6000803e3d6000fd5b505050506040513d601f19601f8201168201806040525061342e9190810190613f8e565b1561346e576040517f08c379a000000000000000000000000000000000000000000000000000000000815260040161346590615b9c565b60405180910390fd5b600860009054906101000a900473ffffffffffffffffffffffffffffffffffffffff1673ffffffffffffffffffffffffffffffffffffffff16633a66f90186868686866040518663ffffffff1660e01b81526004016134d19594939291906158ca565b602060405180830381600087803b1580156134eb57600080fd5b505af11580156134ff573d6000803e3d6000fd5b505050506040513d601f19601f820116820180604052506135239190810190613fb7565b505050505050565b604051806101c0016040528060008152602001600073ffffffffffffffffffffffffffffffffffffffff168152602001600081526020016060815260200160608152602001606081526020016060815260200160008152602001600081526020016000815260200160008152602001600081526020016000151581526020016000151581525090565b82805482825590600052602060002090810192821561362d579160200282015b8281111561362c5782518260006101000a81548173ffffffffffffffffffffffffffffffffffffffff021916908373ffffffffffffffffffffffffffffffffffffffff160217905550916020019190600101906135d4565b5b50905061363a919061377f565b5090565b82805482825590600052602060002090810192821561367a579160200282015b8281111561367957825182559160200191906001019061365e565b5b50905061368791906137c2565b5090565b8280548282559060005260206000209081019282156136da579160200282015b828111156136d95782518290805190602001906136c99291906137e7565b50916020019190600101906136ab565b5b5090506136e79190613867565b5090565b82805482825590600052602060002090810192821561373a579160200282015b82811115613739578251829080519060200190613729929190613893565b509160200191906001019061370b565b5b5090506137479190613913565b5090565b6040518060600160405280600015158152602001600060ff16815260200160006bffffffffffffffffffffffff1681525090565b6137bf91905b808211156137bb57600081816101000a81549073ffffffffffffffffffffffffffffffffffffffff021916905550600101613785565b5090565b90565b6137e491905b808211156137e05760008160009055506001016137c8565b5090565b90565b828054600181600116156101000203166002900490600052602060002090601f016020900481019282601f1061382857805160ff1916838001178555613856565b82800160010185558215613856579182015b8281111561385557825182559160200191906001019061383a565b5b50905061386391906137c2565b5090565b61389091905b8082111561388c5760008181613883919061393f565b5060010161386d565b5090565b90565b828054600181600116156101000203166002900490600052602060002090601f016020900481019282601f106138d457805160ff1916838001178555613902565b82800160010185558215613902579182015b828111156139015782518255916020019190600101906138e6565b5b50905061390f91906137c2565b5090565b61393c91905b80821115613938576000818161392f9190613987565b50600101613919565b5090565b90565b50805460018160011615610100020316600290046000825580601f106139655750613984565b601f01602090049060005260206000209081019061398391906137c2565b5b50565b50805460018160011615610100020316600290046000825580601f106139ad57506139cc565b601f0160209004906000526020600020908101906139cb91906137c2565b5b50565b6000813590506139de8161669b565b92915050565b600082601f8301126139f557600080fd5b8135613a08613a038261622c565b6161ff565b91508181835260208401935060208101905083856020840282011115613a2d57600080fd5b60005b83811015613a5d5781613a4388826139cf565b845260208401935060208301925050600181019050613a30565b5050505092915050565b600082601f830112613a7857600080fd5b8135613a8b613a8682616254565b6161ff565b9150818183526020840193506020810190508360005b83811015613ad15781358601613ab78882613c11565b845260208401935060208301925050600181019050613aa1565b5050505092915050565b600082601f830112613aec57600080fd5b8135613aff613afa8261627c565b6161ff565b9150818183526020840193506020810190508360005b83811015613b455781358601613b2b8882613d03565b845260208401935060208301925050600181019050613b15565b5050505092915050565b600082601f830112613b6057600080fd5b8135613b73613b6e826162a4565b6161ff565b91508181835260208401935060208101905083856020840282011115613b9857600080fd5b60005b83811015613bc85781613bae8882613dab565b845260208401935060208301925050600181019050613b9b565b5050505092915050565b600081519050613be1816166b2565b92915050565b600081359050613bf6816166c9565b92915050565b600081519050613c0b816166c9565b92915050565b600082601f830112613c2257600080fd5b8135613c35613c30826162cc565b6161ff565b91508082526020830160208301858383011115613c5157600080fd5b613c5c838284616631565b50505092915050565b600082601f830112613c7657600080fd5b8151613c89613c84826162f8565b6161ff565b91508082526020830160208301858383011115613ca557600080fd5b613cb0838284616640565b50505092915050565b60008083601f840112613ccb57600080fd5b8235905067ffffffffffffffff811115613ce457600080fd5b602083019150836001820283011115613cfc57600080fd5b9250929050565b600082601f830112613d1457600080fd5b8135613d27613d2282616324565b6161ff565b91508082526020830160208301858383011115613d4357600080fd5b613d4e838284616631565b50505092915050565b600082601f830112613d6857600080fd5b8135613d7b613d7682616350565b6161ff565b91508082526020830160208301858383011115613d9757600080fd5b613da2838284616631565b50505092915050565b600081359050613dba816166e0565b92915050565b600081519050613dcf816166e0565b92915050565b600081359050613de4816166f7565b92915050565b600081519050613df98161670e565b92915050565b600060208284031215613e1157600080fd5b6000613e1f848285016139cf565b91505092915050565b600080600080600060a08688031215613e4057600080fd5b6000613e4e888289016139cf565b9550506020613e5f888289016139cf565b9450506040613e7088828901613dab565b9350506060613e8188828901613dab565b9250506080613e9288828901613dab565b9150509295509295909350565b600080600080600060a08688031215613eb757600080fd5b600086013567ffffffffffffffff811115613ed157600080fd5b613edd888289016139e4565b955050602086013567ffffffffffffffff811115613efa57600080fd5b613f0688828901613b4f565b945050604086013567ffffffffffffffff811115613f2357600080fd5b613f2f88828901613adb565b935050606086013567ffffffffffffffff811115613f4c57600080fd5b613f5888828901613a67565b925050608086013567ffffffffffffffff811115613f7557600080fd5b613f8188828901613d57565b9150509295509295909350565b600060208284031215613fa057600080fd5b6000613fae84828501613bd2565b91505092915050565b600060208284031215613fc957600080fd5b6000613fd784828501613bfc565b91505092915050565b600060208284031215613ff257600080fd5b600082015167ffffffffffffffff81111561400c57600080fd5b61401884828501613c65565b91505092915050565b60006020828403121561403357600080fd5b600061404184828501613dab565b91505092915050565b60006020828403121561405c57600080fd5b600061406a84828501613dc0565b91505092915050565b6000806040838503121561408657600080fd5b600061409485828601613dab565b92505060206140a5858286016139cf565b9150509250929050565b600080604083850312156140c257600080fd5b60006140d085828601613dab565b92505060206140e185828601613dd5565b9150509250929050565b6000806000806060858703121561410157600080fd5b600061410f87828801613dab565b945050602061412087828801613dd5565b935050604085013567ffffffffffffffff81111561413d57600080fd5b61414987828801613cb9565b925092505092959194509250565b600080600080600060a0868803121561416f57600080fd5b600061417d88828901613dab565b955050602061418e88828901613dd5565b945050604061419f88828901613dd5565b93505060606141b088828901613be7565b92505060806141c188828901613be7565b9150509295509295909350565b6000602082840312156141e057600080fd5b60006141ee84828501613dea565b91505092915050565b6000614203838361425e565b60208301905092915050565b600061421b838361449f565b905092915050565b600061422f83836145fa565b905092915050565b60006142438383615779565b60208301905092915050565b6142588161658f565b82525050565b61426781616505565b82525050565b61427681616505565b82525050565b6000614287826163e6565b6142918185616472565b935061429c8361637c565b8060005b838110156142cd5781516142b488826141f7565b97506142bf8361643e565b9250506001810190506142a0565b5085935050505092915050565b60006142e5826163f1565b6142ef8185616483565b9350836020820285016143018561638c565b8060005b8581101561433d578484038952815161431e858261420f565b94506143298361644b565b925060208a01995050600181019050614305565b50829750879550505050505092915050565b600061435a826163fc565b6143648185616494565b9350836020820285016143768561639c565b8060005b858110156143b257848403895281516143938582614223565b945061439e83616458565b925060208a0199505060018101905061437a565b50829750879550505050505092915050565b60006143cf82616407565b6143d981856164a5565b93506143e4836163ac565b8060005b838110156144155781516143fc8882614237565b975061440783616465565b9250506001810190506143e8565b5085935050505092915050565b61442b81616517565b82525050565b61443a81616517565b82525050565b61444981616523565b82525050565b61446061445b82616523565b616673565b82525050565b60006144718261641d565b61447b81856164c7565b935061448b818560208601616640565b6144948161667d565b840191505092915050565b60006144aa82616412565b6144b481856164b6565b93506144c4818560208601616640565b6144cd8161667d565b840191505092915050565b6000815460018116600081146144f5576001811461451b5761455f565b607f600283041661450681876164c7565b955060ff19831686526020860193505061455f565b6002820461452981876164c7565b9550614534856163bc565b60005b8281101561455657815481890152600182019150602081019050614537565b80880195505050505b505092915050565b614570816165a1565b82525050565b61457f816165c5565b82525050565b61458e816165e9565b82525050565b60006145a083856164e9565b93506145ad838584616631565b6145b68361667d565b840190509392505050565b60006145cc82616433565b6145d681856164e9565b93506145e6818560208601616640565b6145ef8161667d565b840191505092915050565b600061460582616428565b61460f81856164d8565b935061461f818560208601616640565b6146288161667d565b840191505092915050565b600061463e82616428565b61464881856164e9565b9350614658818560208601616640565b6146618161667d565b840191505092915050565b60008154600181166000811461468957600181146146af576146f3565b607f600283041661469a81876164e9565b955060ff1983168652602086019350506146f3565b600282046146bd81876164e9565b95506146c8856163d1565b60005b828110156146ea578154818901526001820191506020810190506146cb565b80880195505050505b505092915050565b60006147086032836164e9565b91507f476f7665726e6f72427261766f3a3a63617374566f7465496e7465726e616c3a60008301527f20696e76616c696420766f7465207479706500000000000000000000000000006020830152604082019050919050565b600061476e6028836164fa565b91507f42616c6c6f742875696e743235362070726f706f73616c49642c75696e74382060008301527f737570706f7274290000000000000000000000000000000000000000000000006020830152602882019050919050565b60006147d46033836164e9565b91507f476f7665726e6f72427261766f3a3a696e697469616c697a653a2063616e206f60008301527f6e6c7920696e697469616c697a65206f6e6365000000000000000000000000006020830152604082019050919050565b600061483a602a836164e9565b91507f476f7665726e6f72427261766f3a5f73657450656e64696e6741646d696e3a2060008301527f61646d696e206f6e6c79000000000000000000000000000000000000000000006020830152604082019050919050565b60006148a06055836164e9565b91507f476f7665726e6f72427261766f3a3a71756575654f72526576657274496e746560008301527f726e616c3a206964656e746963616c2070726f706f73616c20616374696f6e2060208301527f616c7265616479207175657565642061742065746100000000000000000000006040830152606082019050919050565b600061492c602b836164e9565b91507f476f7665726e6f72427261766f3a3a5f736574566f74696e67506572696f643a60008301527f2061646d696e206f6e6c790000000000000000000000000000000000000000006020830152604082019050919050565b60006149926033836164e9565b91507f476f7665726e6f72427261766f3a3a696e697469616c697a653a20696e76616c60008301527f69642074696d656c6f636b2061646472657373000000000000000000000000006020830152604082019050919050565b60006149f8602a836164e9565b91507f476f7665726e6f72427261766f3a3a5f736574566f74696e6744656c61793a2060008301527f61646d696e206f6e6c79000000000000000000000000000000000000000000006020830152604082019050919050565b6000614a5e6031836164e9565b91507f476f7665726e6f72427261766f3a3a70726f706f73653a20476f7665726e6f7260008301527f20427261766f206e6f74206163746976650000000000000000000000000000006020830152604082019050919050565b6000614ac46002836164fa565b91507f19010000000000000000000000000000000000000000000000000000000000006000830152600282019050919050565b6000614b046036836164e9565b91507f476f7665726e6f72427261766f3a3a5f736574566f74696e67506572696f643a60008301527f20696e76616c696420766f74696e6720706572696f64000000000000000000006020830152604082019050919050565b6000614b6a6031836164e9565b91507f476f7665726e6f72427261766f3a3a63617374566f7465496e7465726e616c3a60008301527f20766f74696e6720697320636c6f7365640000000000000000000000000000006020830152604082019050919050565b6000614bd06034836164e9565b91507f476f7665726e6f72427261766f3a3a63617374566f7465496e7465726e616c3a60008301527f20766f74657220616c726561647920766f7465640000000000000000000000006020830152604082019050919050565b6000614c366034836164e9565b91507f476f7665726e6f72427261766f3a3a5f736574566f74696e6744656c61793a2060008301527f696e76616c696420766f74696e672064656c61790000000000000000000000006020830152604082019050919050565b6000614c9c6035836164e9565b91507f476f7665726e6f72427261766f3a3a696e697469616c697a653a20696e76616c60008301527f69642070726f706f73616c207468726573686f6c6400000000000000000000006020830152604082019050919050565b6000614d026045836164e9565b91507f476f7665726e6f72427261766f3a3a657865637574653a2070726f706f73616c60008301527f2063616e206f6e6c79206265206578656375746564206966206974206973207160208301527f75657565640000000000000000000000000000000000000000000000000000006040830152606082019050919050565b6000614d8e602f836164e9565b91507f476f7665726e6f72427261766f3a3a63617374566f746542795369673a20696e60008301527f76616c6964207369676e617475726500000000000000000000000000000000006020830152604082019050919050565b6000614df4602f836164e9565b91507f476f7665726e6f72427261766f3a3a696e697469616c697a653a20696e76616c60008301527f696420766f74696e672064656c617900000000000000000000000000000000006020830152604082019050919050565b6000614e5a6044836164e9565b91507f476f7665726e6f72427261766f3a3a70726f706f73653a2070726f706f73616c60008301527f2066756e6374696f6e20696e666f726d6174696f6e206172697479206d69736d60208301527f61746368000000000000000000000000000000000000000000000000000000006040830152606082019050919050565b6000614ee66025836164e9565b91507f476f7665726e6f72427261766f3a3a696e697469616c697a653a2061646d696e60008301527f206f6e6c790000000000000000000000000000000000000000000000000000006020830152604082019050919050565b6000614f4c6040836164e9565b91507f476f7665726e6f72427261766f3a3a5f73657450726f706f73616c546872657360008301527f686f6c643a20696e76616c69642070726f706f73616c207468726573686f6c646020830152604082019050919050565b6000614fb2602f836164e9565b91507f476f7665726e6f72427261766f3a3a696e697469616c697a653a20696e76616c60008301527f696420626f6261206164647265737300000000000000000000000000000000006020830152604082019050919050565b60006150186044836164e9565b91507f476f7665726e6f72427261766f3a3a71756575653a2070726f706f73616c206360008301527f616e206f6e6c792062652071756575656420696620697420697320737563636560208301527f65646564000000000000000000000000000000000000000000000000000000006040830152606082019050919050565b60006150a46011836164e9565b91507f6164646974696f6e206f766572666c6f770000000000000000000000000000006000830152602082019050919050565b60006150e46043836164fa565b91507f454950373132446f6d61696e28737472696e67206e616d652c75696e7432353660008301527f20636861696e49642c6164647265737320766572696679696e67436f6e74726160208301527f63742900000000000000000000000000000000000000000000000000000000006040830152604382019050919050565b60006151706030836164e9565b91507f476f7665726e6f72427261766f3a3a5f696e6974696174653a2063616e206f6e60008301527f6c7920696e697469617465206f6e6365000000000000000000000000000000006020830152604082019050919050565b60006151d6602c836164e9565b91507f476f7665726e6f72427261766f3a3a70726f706f73653a206d7573742070726f60008301527f7669646520616374696f6e7300000000000000000000000000000000000000006020830152604082019050919050565b600061523c602e836164e9565b91507f476f7665726e6f72427261766f3a5f61636365707441646d696e3a2070656e6460008301527f696e672061646d696e206f6e6c790000000000000000000000000000000000006020830152604082019050919050565b60006152a2602f836164e9565b91507f476f7665726e6f72427261766f3a3a63616e63656c3a2070726f706f7365722060008301527f61626f7665207468726573686f6c6400000000000000000000000000000000006020830152604082019050919050565b60006153086028836164e9565b91507f476f7665726e6f72427261766f3a3a70726f706f73653a20746f6f206d616e7960008301527f20616374696f6e730000000000000000000000000000000000000000000000006020830152604082019050919050565b600061536e6059836164e9565b91507f476f7665726e6f72427261766f3a3a70726f706f73653a206f6e65206c69766560008301527f2070726f706f73616c207065722070726f706f7365722c20666f756e6420616e60208301527f20616c72656164792070656e64696e672070726f706f73616c000000000000006040830152606082019050919050565b60006153fa6058836164e9565b91507f476f7665726e6f72427261766f3a3a70726f706f73653a206f6e65206c69766560008301527f2070726f706f73616c207065722070726f706f7365722c20666f756e6420616e60208301527f20616c7265616479206163746976652070726f706f73616c00000000000000006040830152606082019050919050565b60006154866000836164e9565b9150600082019050919050565b60006154a06024836164e9565b91507f476f7665726e6f72427261766f3a3a5f696e6974696174653a2061646d696e2060008301527f6f6e6c79000000000000000000000000000000000000000000000000000000006020830152604082019050919050565b6000615506603f836164e9565b91507f476f7665726e6f72427261766f3a3a70726f706f73653a2070726f706f73657260008301527f20766f7465732062656c6f772070726f706f73616c207468726573686f6c64006020830152604082019050919050565b600061556c6036836164e9565b91507f476f7665726e6f72427261766f3a3a63616e63656c3a2063616e6e6f7420636160008301527f6e63656c2065786563757465642070726f706f73616c000000000000000000006020830152604082019050919050565b60006155d26030836164e9565b91507f476f7665726e6f72427261766f3a3a5f73657450726f706f73616c546872657360008301527f686f6c643a2061646d696e206f6e6c79000000000000000000000000000000006020830152604082019050919050565b60006156386029836164e9565b91507f476f7665726e6f72427261766f3a3a73746174653a20696e76616c696420707260008301527f6f706f73616c20696400000000000000000000000000000000000000000000006020830152604082019050919050565b600061569e6030836164e9565b91507f476f7665726e6f72427261766f3a3a696e697469616c697a653a20696e76616c60008301527f696420766f74696e6720706572696f64000000000000000000000000000000006020830152604082019050919050565b60006157046015836164e9565b91507f7375627472616374696f6e20756e646572666c6f7700000000000000000000006000830152602082019050919050565b60608201600082015161574d6000850182614422565b5060208201516157606020850182615797565b50604082015161577360408501826157c4565b50505050565b61578281616560565b82525050565b61579181616560565b82525050565b6157a08161656a565b82525050565b6157af8161656a565b82525050565b6157be8161661f565b82525050565b6157cd81616577565b82525050565b60006157de82614761565b9150819050919050565b60006157f382614ab7565b91506157ff828561444f565b60208201915061580f828461444f565b6020820191508190509392505050565b600061582a826150d7565b9150819050919050565b6000602082019050615849600083018461426d565b92915050565b6000604082019050615864600083018561424f565b6158716020830184615788565b9392505050565b600060408201905061588d600083018561426d565b61589a602083018461426d565b9392505050565b60006040820190506158b6600083018561426d565b6158c36020830184615788565b9392505050565b600060a0820190506158df600083018861426d565b6158ec6020830187615788565b81810360408301526158fe81866145c1565b905081810360608301526159128185614466565b90506159216080830184615788565b9695505050505050565b600060a082019050615940600083018861426d565b61594d6020830187615788565b818103604083015261595f818661466c565b9050818103606083015261597381856144d8565b90506159826080830184615788565b9695505050505050565b600060808201905081810360008301526159a6818761427c565b905081810360208301526159ba81866143c4565b905081810360408301526159ce818561434f565b905081810360608301526159e281846142da565b905095945050505050565b6000602082019050615a026000830184614440565b92915050565b6000608082019050615a1d6000830187614440565b615a2a6020830186614440565b615a376040830185615788565b615a44606083018461426d565b95945050505050565b6000606082019050615a626000830186614440565b615a6f6020830185615788565b615a7c60408301846157a6565b949350505050565b6000608082019050615a996000830187614440565b615aa660208301866157a6565b615ab36040830185614440565b615ac06060830184614440565b95945050505050565b6000602082019050615ade6000830184614567565b92915050565b6000602082019050615af96000830184614576565b92915050565b6000602082019050615b146000830184614585565b92915050565b60006020820190508181036000830152615b348184614633565b905092915050565b60006020820190508181036000830152615b55816146fb565b9050919050565b60006020820190508181036000830152615b75816147c7565b9050919050565b60006020820190508181036000830152615b958161482d565b9050919050565b60006020820190508181036000830152615bb581614893565b9050919050565b60006020820190508181036000830152615bd58161491f565b9050919050565b60006020820190508181036000830152615bf581614985565b9050919050565b60006020820190508181036000830152615c15816149eb565b9050919050565b60006020820190508181036000830152615c3581614a51565b9050919050565b60006020820190508181036000830152615c5581614af7565b9050919050565b60006020820190508181036000830152615c7581614b5d565b9050919050565b60006020820190508181036000830152615c9581614bc3565b9050919050565b60006020820190508181036000830152615cb581614c29565b9050919050565b60006020820190508181036000830152615cd581614c8f565b9050919050565b60006020820190508181036000830152615cf581614cf5565b9050919050565b60006020820190508181036000830152615d1581614d81565b9050919050565b60006020820190508181036000830152615d3581614de7565b9050919050565b60006020820190508181036000830152615d5581614e4d565b9050919050565b60006020820190508181036000830152615d7581614ed9565b9050919050565b60006020820190508181036000830152615d9581614f3f565b9050919050565b60006020820190508181036000830152615db581614fa5565b9050919050565b60006020820190508181036000830152615dd58161500b565b9050919050565b60006020820190508181036000830152615df581615097565b9050919050565b60006020820190508181036000830152615e1581615163565b9050919050565b60006020820190508181036000830152615e35816151c9565b9050919050565b60006020820190508181036000830152615e558161522f565b9050919050565b60006020820190508181036000830152615e7581615295565b9050919050565b60006020820190508181036000830152615e95816152fb565b9050919050565b60006020820190508181036000830152615eb581615361565b9050919050565b60006020820190508181036000830152615ed5816153ed565b9050919050565b60006020820190508181036000830152615ef581615493565b9050919050565b60006020820190508181036000830152615f15816154f9565b9050919050565b60006020820190508181036000830152615f358161555f565b9050919050565b60006020820190508181036000830152615f55816155c5565b9050919050565b60006020820190508181036000830152615f758161562b565b9050919050565b60006020820190508181036000830152615f9581615691565b9050919050565b60006020820190508181036000830152615fb5816156f7565b9050919050565b6000606082019050615fd16000830184615737565b92915050565b6000602082019050615fec6000830184615788565b92915050565b600061012082019050616008600083018c615788565b616015602083018b61424f565b8181036040830152616027818a61427c565b9050818103606083015261603b81896143c4565b9050818103608083015261604f818861434f565b905081810360a083015261606381876142da565b905061607260c0830186615788565b61607f60e0830185615788565b81810361010083015261609281846145c1565b90509a9950505050505050505050565b6000610140820190506160b8600083018d615788565b6160c5602083018c61426d565b6160d2604083018b615788565b6160df606083018a615788565b6160ec6080830189615788565b6160f960a0830188615788565b61610660c0830187615788565b61611360e0830186615788565b616121610100830185614431565b61612f610120830184614431565b9b9a5050505050505050505050565b60006040820190506161536000830185615788565b6161606020830184615788565b9392505050565b600060808201905061617c6000830188615788565b61618960208301876157a6565b61619660408301866157b5565b81810360608301526161a9818486614594565b90509695505050505050565b60006080820190506161ca6000830186615788565b6161d760208301856157a6565b6161e460408301846157b5565b81810360608301526161f581615479565b9050949350505050565b6000604051905081810181811067ffffffffffffffff8211171561622257600080fd5b8060405250919050565b600067ffffffffffffffff82111561624357600080fd5b602082029050602081019050919050565b600067ffffffffffffffff82111561626b57600080fd5b602082029050602081019050919050565b600067ffffffffffffffff82111561629357600080fd5b602082029050602081019050919050565b600067ffffffffffffffff8211156162bb57600080fd5b602082029050602081019050919050565b600067ffffffffffffffff8211156162e357600080fd5b601f19601f8301169050602081019050919050565b600067ffffffffffffffff82111561630f57600080fd5b601f19601f8301169050602081019050919050565b600067ffffffffffffffff82111561633b57600080fd5b601f19601f8301169050602081019050919050565b600067ffffffffffffffff82111561636757600080fd5b601f19601f8301169050602081019050919050565b6000819050602082019050919050565b6000819050602082019050919050565b6000819050602082019050919050565b6000819050602082019050919050565b60008190508160005260206000209050919050565b60008190508160005260206000209050919050565b600081519050919050565b600081519050919050565b600081519050919050565b600081519050919050565b600081519050919050565b600081519050919050565b600081519050919050565b600081519050919050565b6000602082019050919050565b6000602082019050919050565b6000602082019050919050565b6000602082019050919050565b600082825260208201905092915050565b600082825260208201905092915050565b600082825260208201905092915050565b600082825260208201905092915050565b600082825260208201905092915050565b600082825260208201905092915050565b600082825260208201905092915050565b600082825260208201905092915050565b600081905092915050565b600061651082616540565b9050919050565b60008115159050919050565b6000819050919050565b600081905061653b8261668e565b919050565b600073ffffffffffffffffffffffffffffffffffffffff82169050919050565b6000819050919050565b600060ff82169050919050565b60006bffffffffffffffffffffffff82169050919050565b600061659a826165fb565b9050919050565b60006165ac826165b3565b9050919050565b60006165be82616540565b9050919050565b60006165d0826165d7565b9050919050565b60006165e282616540565b9050919050565b60006165f48261652d565b9050919050565b60006166068261660d565b9050919050565b600061661882616540565b9050919050565b600061662a82616577565b9050919050565b82818337600083830152505050565b60005b8381101561665e578082015181840152602081019050616643565b8381111561666d576000848401525b50505050565b6000819050919050565b6000601f19601f8301169050919050565b6008811061669857fe5b50565b6166a481616505565b81146166af57600080fd5b50565b6166bb81616517565b81146166c657600080fd5b50565b6166d281616523565b81146166dd57600080fd5b50565b6166e981616560565b81146166f457600080fd5b50565b6167008161656a565b811461670b57600080fd5b50565b61671781616577565b811461672257600080fd5b5056fea365627a7a72315820692e51de8626eb77f38ff8fc6f03fb865c7b8deec1ce433cecda0a7a40fd884d6c6578706572696d656e74616cf564736f6c63430005100040",
  "source": "pragma solidity ^0.5.16;\npragma experimental ABIEncoderV2;\n\nimport \"./GovernorBravoInterfaces.sol\";\n\ncontract GovernorBravoDelegate is GovernorBravoDelegateStorageV1, GovernorBravoEvents {\n\n    /// @notice The name of this contract\n    string public constant name = \"Boba Governor Bravo\";\n\n    /// @notice The minimum setable proposal threshold\n    uint public constant MIN_PROPOSAL_THRESHOLD = 50000e18; // 50,000 Boba\n\n    /// @notice The maximum setable proposal threshold\n    uint public constant MAX_PROPOSAL_THRESHOLD = 100000e18; //100,000 Boba\n\n    /// @notice The minimum setable voting period\n    uint public constant MIN_VOTING_PERIOD = 5760; // About 24 hours\n\n    /// @notice The max setable voting period\n    uint public constant MAX_VOTING_PERIOD = 80640; // About 2 weeks\n\n    /// @notice The min setable voting delay\n    uint public constant MIN_VOTING_DELAY = 1;\n\n    /// @notice The max setable voting delay\n    uint public constant MAX_VOTING_DELAY = 40320; // About 1 week\n\n    /// @notice The number of votes in support of a proposal required in order for a quorum to be reached and for a vote to succeed\n    uint public constant quorumVotes = 400000e18; // 400,000 = 4% of Boba\n\n    /// @notice The maximum number of actions that can be included in a proposal\n    uint public constant proposalMaxOperations = 10; // 10 actions\n\n    /// @notice The EIP-712 typehash for the contract's domain\n    bytes32 public constant DOMAIN_TYPEHASH = keccak256(\"EIP712Domain(string name,uint256 chainId,address verifyingContract)\");\n\n    /// @notice The EIP-712 typehash for the ballot struct used by the contract\n    bytes32 public constant BALLOT_TYPEHASH = keccak256(\"Ballot(uint256 proposalId,uint8 support)\");\n\n    /**\n      * @notice Used to initialize the contract during delegator contructor\n      * @param timelock_ The address of the Timelock\n      * @param boba_ The address of the BOBA token\n      * @param votingPeriod_ The initial voting period\n      * @param votingDelay_ The initial voting delay\n      * @param proposalThreshold_ The initial proposal threshold\n      */\n    function initialize(address timelock_, address boba_, uint votingPeriod_, uint votingDelay_, uint proposalThreshold_) public {\n        require(address(timelock) == address(0), \"GovernorBravo::initialize: can only initialize once\");\n        require(msg.sender == admin, \"GovernorBravo::initialize: admin only\");\n        require(timelock_ != address(0), \"GovernorBravo::initialize: invalid timelock address\");\n        require(boba_ != address(0), \"GovernorBravo::initialize: invalid boba address\");\n        require(votingPeriod_ >= MIN_VOTING_PERIOD && votingPeriod_ <= MAX_VOTING_PERIOD, \"GovernorBravo::initialize: invalid voting period\");\n        require(votingDelay_ >= MIN_VOTING_DELAY && votingDelay_ <= MAX_VOTING_DELAY, \"GovernorBravo::initialize: invalid voting delay\");\n        require(proposalThreshold_ >= MIN_PROPOSAL_THRESHOLD && proposalThreshold_ <= MAX_PROPOSAL_THRESHOLD, \"GovernorBravo::initialize: invalid proposal threshold\");\n\n        timelock = TimelockInterface(timelock_);\n        boba = BobaInterface(boba_);\n        votingPeriod = votingPeriod_;\n        votingDelay = votingDelay_;\n        proposalThreshold = proposalThreshold_;\n    }\n\n    /**\n      * @notice Function used to propose a new proposal. Sender must have delegates above the proposal threshold\n      * @param targets Target addresses for proposal calls\n      * @param values Eth values for proposal calls\n      * @param signatures Function signatures for proposal calls\n      * @param calldatas Calldatas for proposal calls\n      * @param description String description of the proposal\n      * @return Proposal id of new proposal\n      */\n    function propose(address[] memory targets, uint[] memory values, string[] memory signatures, bytes[] memory calldatas, string memory description) public returns (uint) {\n        // Reject proposals before initiating as Governor\n        require(initialProposalId != 0, \"GovernorBravo::propose: Governor Bravo not active\");\n        require(boba.getPriorVotes(msg.sender, sub256(block.number, 1)) > proposalThreshold, \"GovernorBravo::propose: proposer votes below proposal threshold\");\n        require(targets.length == values.length && targets.length == signatures.length && targets.length == calldatas.length, \"GovernorBravo::propose: proposal function information arity mismatch\");\n        require(targets.length != 0, \"GovernorBravo::propose: must provide actions\");\n        require(targets.length <= proposalMaxOperations, \"GovernorBravo::propose: too many actions\");\n\n        uint latestProposalId = latestProposalIds[msg.sender];\n        if (latestProposalId != 0) {\n          ProposalState proposersLatestProposalState = state(latestProposalId);\n          require(proposersLatestProposalState != ProposalState.Active, \"GovernorBravo::propose: one live proposal per proposer, found an already active proposal\");\n          require(proposersLatestProposalState != ProposalState.Pending, \"GovernorBravo::propose: one live proposal per proposer, found an already pending proposal\");\n        }\n\n        uint startBlock = add256(block.number, votingDelay);\n        uint endBlock = add256(startBlock, votingPeriod);\n\n        proposalCount++;\n        Proposal memory newProposal = Proposal({\n            id: proposalCount,\n            proposer: msg.sender,\n            eta: 0,\n            targets: targets,\n            values: values,\n            signatures: signatures,\n            calldatas: calldatas,\n            startBlock: startBlock,\n            endBlock: endBlock,\n            forVotes: 0,\n            againstVotes: 0,\n            abstainVotes: 0,\n            canceled: false,\n            executed: false\n        });\n\n        proposals[newProposal.id] = newProposal;\n        latestProposalIds[newProposal.proposer] = newProposal.id;\n\n        emit ProposalCreated(newProposal.id, msg.sender, targets, values, signatures, calldatas, startBlock, endBlock, description);\n        return newProposal.id;\n    }\n\n    /**\n      * @notice Queues a proposal of state succeeded\n      * @param proposalId The id of the proposal to queue\n      */\n    function queue(uint proposalId) external {\n        require(state(proposalId) == ProposalState.Succeeded, \"GovernorBravo::queue: proposal can only be queued if it is succeeded\");\n        Proposal storage proposal = proposals[proposalId];\n        uint eta = add256(block.timestamp, timelock.delay());\n        for (uint i = 0; i < proposal.targets.length; i++) {\n            queueOrRevertInternal(proposal.targets[i], proposal.values[i], proposal.signatures[i], proposal.calldatas[i], eta);\n        }\n        proposal.eta = eta;\n        emit ProposalQueued(proposalId, eta);\n    }\n\n    function queueOrRevertInternal(address target, uint value, string memory signature, bytes memory data, uint eta) internal {\n        require(!timelock.queuedTransactions(keccak256(abi.encode(target, value, signature, data, eta))), \"GovernorBravo::queueOrRevertInternal: identical proposal action already queued at eta\");\n        timelock.queueTransaction(target, value, signature, data, eta);\n    }\n\n    /**\n      * @notice Executes a queued proposal if eta has passed\n      * @param proposalId The id of the proposal to execute\n      */\n    function execute(uint proposalId) external payable {\n        require(state(proposalId) == ProposalState.Queued, \"GovernorBravo::execute: proposal can only be executed if it is queued\");\n        Proposal storage proposal = proposals[proposalId];\n        proposal.executed = true;\n        for (uint i = 0; i < proposal.targets.length; i++) {\n            timelock.executeTransaction.value(proposal.values[i])(proposal.targets[i], proposal.values[i], proposal.signatures[i], proposal.calldatas[i], proposal.eta);\n        }\n        emit ProposalExecuted(proposalId);\n    }\n\n    /**\n      * @notice Cancels a proposal only if sender is the proposer, or proposer delegates dropped below proposal threshold\n      * @param proposalId The id of the proposal to cancel\n      */\n    function cancel(uint proposalId) external {\n        require(state(proposalId) != ProposalState.Executed, \"GovernorBravo::cancel: cannot cancel executed proposal\");\n\n        Proposal storage proposal = proposals[proposalId];\n        require(msg.sender == proposal.proposer || boba.getPriorVotes(proposal.proposer, sub256(block.number, 1)) < proposalThreshold, \"GovernorBravo::cancel: proposer above threshold\");\n\n        proposal.canceled = true;\n        for (uint i = 0; i < proposal.targets.length; i++) {\n            timelock.cancelTransaction(proposal.targets[i], proposal.values[i], proposal.signatures[i], proposal.calldatas[i], proposal.eta);\n        }\n\n        emit ProposalCanceled(proposalId);\n    }\n\n    /**\n      * @notice Gets actions of a proposal\n      * @param proposalId the id of the proposal\n      * @return Targets, values, signatures, and calldatas of the proposal actions\n      */\n    function getActions(uint proposalId) external view returns (address[] memory targets, uint[] memory values, string[] memory signatures, bytes[] memory calldatas) {\n        Proposal storage p = proposals[proposalId];\n        return (p.targets, p.values, p.signatures, p.calldatas);\n    }\n\n    /**\n      * @notice Gets the receipt for a voter on a given proposal\n      * @param proposalId the id of proposal\n      * @param voter The address of the voter\n      * @return The voting receipt\n      */\n    function getReceipt(uint proposalId, address voter) external view returns (Receipt memory) {\n        return proposals[proposalId].receipts[voter];\n    }\n\n    /**\n      * @notice Gets the state of a proposal\n      * @param proposalId The id of the proposal\n      * @return Proposal state\n      */\n    function state(uint proposalId) public view returns (ProposalState) {\n        require(proposalCount >= proposalId && proposalId > initialProposalId, \"GovernorBravo::state: invalid proposal id\");\n        Proposal storage proposal = proposals[proposalId];\n        if (proposal.canceled) {\n            return ProposalState.Canceled;\n        } else if (block.number <= proposal.startBlock) {\n            return ProposalState.Pending;\n        } else if (block.number <= proposal.endBlock) {\n            return ProposalState.Active;\n        } else if (proposal.forVotes <= proposal.againstVotes || proposal.forVotes < quorumVotes) {\n            return ProposalState.Defeated;\n        } else if (proposal.eta == 0) {\n            return ProposalState.Succeeded;\n        } else if (proposal.executed) {\n            return ProposalState.Executed;\n        } else if (block.timestamp >= add256(proposal.eta, timelock.GRACE_PERIOD())) {\n            return ProposalState.Expired;\n        } else {\n            return ProposalState.Queued;\n        }\n    }\n\n    /**\n      * @notice Cast a vote for a proposal\n      * @param proposalId The id of the proposal to vote on\n      * @param support The support value for the vote. 0=against, 1=for, 2=abstain\n      */\n    function castVote(uint proposalId, uint8 support) external {\n        emit VoteCast(msg.sender, proposalId, support, castVoteInternal(msg.sender, proposalId, support), \"\");\n    }\n\n    /**\n      * @notice Cast a vote for a proposal with a reason\n      * @param proposalId The id of the proposal to vote on\n      * @param support The support value for the vote. 0=against, 1=for, 2=abstain\n      * @param reason The reason given for the vote by the voter\n      */\n    function castVoteWithReason(uint proposalId, uint8 support, string calldata reason) external {\n        emit VoteCast(msg.sender, proposalId, support, castVoteInternal(msg.sender, proposalId, support), reason);\n    }\n\n    /**\n      * @notice Cast a vote for a proposal by signature\n      * @dev External function that accepts EIP-712 signatures for voting on proposals.\n      */\n    function castVoteBySig(uint proposalId, uint8 support, uint8 v, bytes32 r, bytes32 s) external {\n        bytes32 domainSeparator = keccak256(abi.encode(DOMAIN_TYPEHASH, keccak256(bytes(name)), getChainIdInternal(), address(this)));\n        bytes32 structHash = keccak256(abi.encode(BALLOT_TYPEHASH, proposalId, support));\n        bytes32 digest = keccak256(abi.encodePacked(\"\\x19\\x01\", domainSeparator, structHash));\n        address signatory = ecrecover(digest, v, r, s);\n        require(signatory != address(0), \"GovernorBravo::castVoteBySig: invalid signature\");\n        emit VoteCast(signatory, proposalId, support, castVoteInternal(signatory, proposalId, support), \"\");\n    }\n\n    /**\n      * @notice Internal function that caries out voting logic\n      * @param voter The voter that is casting their vote\n      * @param proposalId The id of the proposal to vote on\n      * @param support The support value for the vote. 0=against, 1=for, 2=abstain\n      * @return The number of votes cast\n      */\n    function castVoteInternal(address voter, uint proposalId, uint8 support) internal returns (uint96) {\n        require(state(proposalId) == ProposalState.Active, \"GovernorBravo::castVoteInternal: voting is closed\");\n        require(support <= 2, \"GovernorBravo::castVoteInternal: invalid vote type\");\n        Proposal storage proposal = proposals[proposalId];\n        Receipt storage receipt = proposal.receipts[voter];\n        require(receipt.hasVoted == false, \"GovernorBravo::castVoteInternal: voter already voted\");\n        uint96 votes = boba.getPriorVotes(voter, proposal.startBlock);\n\n        if (support == 0) {\n            proposal.againstVotes = add256(proposal.againstVotes, votes);\n        } else if (support == 1) {\n            proposal.forVotes = add256(proposal.forVotes, votes);\n        } else if (support == 2) {\n            proposal.abstainVotes = add256(proposal.abstainVotes, votes);\n        }\n\n        receipt.hasVoted = true;\n        receipt.support = support;\n        receipt.votes = votes;\n\n        return votes;\n    }\n\n    /**\n      * @notice Admin function for setting the voting delay\n      * @param newVotingDelay new voting delay, in blocks\n      */\n    function _setVotingDelay(uint newVotingDelay) external {\n        require(msg.sender == admin, \"GovernorBravo::_setVotingDelay: admin only\");\n        require(newVotingDelay >= MIN_VOTING_DELAY && newVotingDelay <= MAX_VOTING_DELAY, \"GovernorBravo::_setVotingDelay: invalid voting delay\");\n        uint oldVotingDelay = votingDelay;\n        votingDelay = newVotingDelay;\n\n        emit VotingDelaySet(oldVotingDelay,votingDelay);\n    }\n\n    /**\n      * @notice Admin function for setting the voting period\n      * @param newVotingPeriod new voting period, in blocks\n      */\n    function _setVotingPeriod(uint newVotingPeriod) external {\n        require(msg.sender == admin, \"GovernorBravo::_setVotingPeriod: admin only\");\n        require(newVotingPeriod >= MIN_VOTING_PERIOD && newVotingPeriod <= MAX_VOTING_PERIOD, \"GovernorBravo::_setVotingPeriod: invalid voting period\");\n        uint oldVotingPeriod = votingPeriod;\n        votingPeriod = newVotingPeriod;\n\n        emit VotingPeriodSet(oldVotingPeriod, votingPeriod);\n    }\n\n    /**\n      * @notice Admin function for setting the proposal threshold\n      * @dev newProposalThreshold must be greater than the hardcoded min\n      * @param newProposalThreshold new proposal threshold\n      */\n    function _setProposalThreshold(uint newProposalThreshold) external {\n        require(msg.sender == admin, \"GovernorBravo::_setProposalThreshold: admin only\");\n        require(newProposalThreshold >= MIN_PROPOSAL_THRESHOLD && newProposalThreshold <= MAX_PROPOSAL_THRESHOLD, \"GovernorBravo::_setProposalThreshold: invalid proposal threshold\");\n        uint oldProposalThreshold = proposalThreshold;\n        proposalThreshold = newProposalThreshold;\n\n        emit ProposalThresholdSet(oldProposalThreshold, proposalThreshold);\n    }\n\n    /**\n      * @notice Initiate the GovernorBravo contract\n      * @dev Admin only. Sets initial proposal id which initiates the contract, ensuring a continuous proposal id count\n      */\n    function _initiate() external {\n        require(msg.sender == admin, \"GovernorBravo::_initiate: admin only\");\n        require(initialProposalId == 0, \"GovernorBravo::_initiate: can only initiate once\");\n        proposalCount = 1;\n        initialProposalId = proposalCount;\n        timelock.acceptAdmin();\n    }\n\n    /**\n      * @notice Begins transfer of admin rights. The newPendingAdmin must call `_acceptAdmin` to finalize the transfer.\n      * @dev Admin function to begin change of admin. The newPendingAdmin must call `_acceptAdmin` to finalize the transfer.\n      * @param newPendingAdmin New pending admin.\n      */\n    function _setPendingAdmin(address newPendingAdmin) external {\n        // Check caller = admin\n        require(msg.sender == admin, \"GovernorBravo:_setPendingAdmin: admin only\");\n\n        // Save current value, if any, for inclusion in log\n        address oldPendingAdmin = pendingAdmin;\n\n        // Store pendingAdmin with value newPendingAdmin\n        pendingAdmin = newPendingAdmin;\n\n        // Emit NewPendingAdmin(oldPendingAdmin, newPendingAdmin)\n        emit NewPendingAdmin(oldPendingAdmin, newPendingAdmin);\n    }\n\n    /**\n      * @notice Accepts transfer of admin rights. msg.sender must be pendingAdmin\n      * @dev Admin function for pending admin to accept role and update admin\n      */\n    function _acceptAdmin() external {\n        // Check caller is pendingAdmin and pendingAdmin  address(0)\n        require(msg.sender == pendingAdmin && msg.sender != address(0), \"GovernorBravo:_acceptAdmin: pending admin only\");\n\n        // Save current values for inclusion in log\n        address oldAdmin = admin;\n        address oldPendingAdmin = pendingAdmin;\n\n        // Store admin with value pendingAdmin\n        admin = pendingAdmin;\n\n        // Clear the pending value\n        pendingAdmin = address(0);\n\n        emit NewAdmin(oldAdmin, admin);\n        emit NewPendingAdmin(oldPendingAdmin, pendingAdmin);\n    }\n\n    function add256(uint256 a, uint256 b) internal pure returns (uint) {\n        uint c = a + b;\n        require(c >= a, \"addition overflow\");\n        return c;\n    }\n\n    function sub256(uint256 a, uint256 b) internal pure returns (uint) {\n        require(b <= a, \"subtraction underflow\");\n        return a - b;\n    }\n\n    function getChainIdInternal() internal pure returns (uint) {\n        uint chainId;\n        assembly { chainId := chainid() }\n        return chainId;\n    }\n}",
  "sourcePath": "/Users/rpark23/Desktop/boba-dao/contracts/GovernorBravoDelegate.sol",
  "compiler": {
    "name": "solc",
    "version": "0.5.16+commit.9c3226ce.Emscripten.clang"
  },
  "schemaVersion": "3.4.3",
  "updatedAt": "2021-08-20T06:30:49.871Z",
  "networkType": "ethereum",
  "devdoc": {
    "methods": {
      "_acceptAdmin()": {
        "details": "Admin function for pending admin to accept role and update admin"
      },
      "_initiate()": {
        "details": "Admin only. Sets initial proposal id which initiates the contract, ensuring a continuous proposal id count"
      },
      "_setPendingAdmin(address)": {
        "details": "Admin function to begin change of admin. The newPendingAdmin must call `_acceptAdmin` to finalize the transfer.",
        "params": {
          "newPendingAdmin": "New pending admin."
        }
      },
      "_setProposalThreshold(uint256)": {
        "details": "newProposalThreshold must be greater than the hardcoded min",
        "params": {
          "newProposalThreshold": "new proposal threshold"
        }
      },
      "_setVotingDelay(uint256)": {
        "params": {
          "newVotingDelay": "new voting delay, in blocks"
        }
      },
      "_setVotingPeriod(uint256)": {
        "params": {
          "newVotingPeriod": "new voting period, in blocks"
        }
      },
      "cancel(uint256)": {
        "params": {
          "proposalId": "The id of the proposal to cancel"
        }
      },
      "castVote(uint256,uint8)": {
        "params": {
          "proposalId": "The id of the proposal to vote on",
          "support": "The support value for the vote. 0=against, 1=for, 2=abstain"
        }
      },
      "castVoteBySig(uint256,uint8,uint8,bytes32,bytes32)": {
        "details": "External function that accepts EIP-712 signatures for voting on proposals."
      },
      "castVoteWithReason(uint256,uint8,string)": {
        "params": {
          "proposalId": "The id of the proposal to vote on",
          "reason": "The reason given for the vote by the voter",
          "support": "The support value for the vote. 0=against, 1=for, 2=abstain"
        }
      },
      "execute(uint256)": {
        "params": {
          "proposalId": "The id of the proposal to execute"
        }
      },
      "getActions(uint256)": {
        "params": {
          "proposalId": "the id of the proposal"
        },
        "return": "Targets, values, signatures, and calldatas of the proposal actions"
      },
      "getReceipt(uint256,address)": {
        "params": {
          "proposalId": "the id of proposal",
          "voter": "The address of the voter"
        },
        "return": "The voting receipt"
      },
      "initialize(address,address,uint256,uint256,uint256)": {
        "params": {
          "boba_": "The address of the BOBA token",
          "proposalThreshold_": "The initial proposal threshold",
          "timelock_": "The address of the Timelock",
          "votingDelay_": "The initial voting delay",
          "votingPeriod_": "The initial voting period"
        }
      },
      "propose(address[],uint256[],string[],bytes[],string)": {
        "params": {
          "calldatas": "Calldatas for proposal calls",
          "description": "String description of the proposal",
          "signatures": "Function signatures for proposal calls",
          "targets": "Target addresses for proposal calls",
          "values": "Eth values for proposal calls"
        },
        "return": "Proposal id of new proposal"
      },
      "queue(uint256)": {
        "params": {
          "proposalId": "The id of the proposal to queue"
        }
      },
      "state(uint256)": {
        "params": {
          "proposalId": "The id of the proposal"
        },
        "return": "Proposal state"
      }
    }
  },
  "userdoc": {
    "methods": {
      "_acceptAdmin()": {
        "notice": "Accepts transfer of admin rights. msg.sender must be pendingAdmin"
      },
      "_initiate()": {
        "notice": "Initiate the GovernorBravo contract"
      },
      "_setPendingAdmin(address)": {
        "notice": "Begins transfer of admin rights. The newPendingAdmin must call `_acceptAdmin` to finalize the transfer."
      },
      "_setProposalThreshold(uint256)": {
        "notice": "Admin function for setting the proposal threshold"
      },
      "_setVotingDelay(uint256)": {
        "notice": "Admin function for setting the voting delay"
      },
      "_setVotingPeriod(uint256)": {
        "notice": "Admin function for setting the voting period"
      },
      "cancel(uint256)": {
        "notice": "Cancels a proposal only if sender is the proposer, or proposer delegates dropped below proposal threshold"
      },
      "castVote(uint256,uint8)": {
        "notice": "Cast a vote for a proposal"
      },
      "castVoteBySig(uint256,uint8,uint8,bytes32,bytes32)": {
        "notice": "Cast a vote for a proposal by signature"
      },
      "castVoteWithReason(uint256,uint8,string)": {
        "notice": "Cast a vote for a proposal with a reason"
      },
      "execute(uint256)": {
        "notice": "Executes a queued proposal if eta has passed"
      },
      "getActions(uint256)": {
        "notice": "Gets actions of a proposal"
      },
      "getReceipt(uint256,address)": {
        "notice": "Gets the receipt for a voter on a given proposal"
      },
      "initialize(address,address,uint256,uint256,uint256)": {
        "notice": "Used to initialize the contract during delegator contructor"
      },
      "propose(address[],uint256[],string[],bytes[],string)": {
        "notice": "Function used to propose a new proposal. Sender must have delegates above the proposal threshold"
      },
      "queue(uint256)": {
        "notice": "Queues a proposal of state succeeded"
      },
      "state(uint256)": {
        "notice": "Gets the state of a proposal"
      }
    }
  }
}